{
  "_format": "hh-sol-artifact-1",
  "contractName": "SafeWallet",
  "sourceName": "contracts/SafeWallet.sol",
  "abi": [
    {
      "inputs": [
        {
          "internalType": "uint256",
          "name": "count",
          "type": "uint256"
        },
        {
          "internalType": "address[]",
          "name": "owners",
          "type": "address[]"
        },
        {
          "internalType": "uint256",
          "name": "threshold",
          "type": "uint256"
        }
      ],
      "stateMutability": "nonpayable",
      "type": "constructor"
    },
    {
      "anonymous": false,
      "inputs": [
        {
          "indexed": false,
          "internalType": "address",
          "name": "to",
          "type": "address"
        },
        {
          "indexed": false,
          "internalType": "uint256",
          "name": "nonce",
          "type": "uint256"
        }
      ],
      "name": "ExecutionFailure",
      "type": "event"
    },
    {
      "anonymous": false,
      "inputs": [
        {
          "indexed": false,
          "internalType": "address",
          "name": "to",
          "type": "address"
        },
        {
          "indexed": false,
          "internalType": "uint256",
          "name": "nonce",
          "type": "uint256"
        }
      ],
      "name": "ExecutionSuccess",
      "type": "event"
    },
    {
      "inputs": [
        {
          "internalType": "address",
          "name": "to",
          "type": "address"
        },
        {
          "internalType": "bytes",
          "name": "data",
          "type": "bytes"
        },
        {
          "internalType": "bytes",
          "name": "signatures",
          "type": "bytes"
        }
      ],
      "name": "execTransaction",
      "outputs": [
        {
          "internalType": "bool",
          "name": "success",
          "type": "bool"
        }
      ],
      "stateMutability": "nonpayable",
      "type": "function"
    },
    {
      "inputs": [],
      "name": "getNonce",
      "outputs": [
        {
          "internalType": "uint256",
          "name": "",
          "type": "uint256"
        }
      ],
      "stateMutability": "view",
      "type": "function"
    },
    {
      "inputs": [
        {
          "internalType": "uint256",
          "name": "id",
          "type": "uint256"
        }
      ],
      "name": "getOwner",
      "outputs": [
        {
          "internalType": "address",
          "name": "",
          "type": "address"
        }
      ],
      "stateMutability": "view",
      "type": "function"
    }
  ],
  "bytecode": "0x60806040523480156200001157600080fd5b506040516200107438038062001074833981810160405281019062000037919062000375565b8260048190555060005b838110156200013b576001600080858481518110620000655762000064620003f0565b5b602002602001015173ffffffffffffffffffffffffffffffffffffffff1673ffffffffffffffffffffffffffffffffffffffff16815260200190815260200160002060006101000a81548160ff021916908315150217905550828181518110620000d457620000d3620003f0565b5b60200260200101516001600083815260200190815260200160002060006101000a81548173ffffffffffffffffffffffffffffffffffffffff021916908373ffffffffffffffffffffffffffffffffffffffff160217905550808060010191505062000041565b81600381905550505050506200041f565b6000604051905090565b600080fd5b600080fd5b6000819050919050565b620001758162000160565b81146200018157600080fd5b50565b60008151905062000195816200016a565b92915050565b600080fd5b6000601f19601f8301169050919050565b7f4e487b7100000000000000000000000000000000000000000000000000000000600052604160045260246000fd5b620001eb82620001a0565b810181811067ffffffffffffffff821117156200020d576200020c620001b1565b5b80604052505050565b6000620002226200014c565b9050620002308282620001e0565b919050565b600067ffffffffffffffff821115620002535762000252620001b1565b5b602082029050602081019050919050565b600080fd5b600073ffffffffffffffffffffffffffffffffffffffff82169050919050565b6000620002968262000269565b9050919050565b620002a88162000289565b8114620002b457600080fd5b50565b600081519050620002c8816200029d565b92915050565b6000620002e5620002df8462000235565b62000216565b905080838252602082019050602084028301858111156200030b576200030a62000264565b5b835b81811015620003385780620003238882620002b7565b8452602084019350506020810190506200030d565b5050509392505050565b600082601f8301126200035a57620003596200019b565b5b81516200036c848260208601620002ce565b91505092915050565b60008060006060848603121562000391576200039062000156565b5b6000620003a18682870162000184565b935050602084015167ffffffffffffffff811115620003c557620003c46200015b565b5b620003d38682870162000342565b9250506040620003e68682870162000184565b9150509250925092565b7f4e487b7100000000000000000000000000000000000000000000000000000000600052603260045260246000fd5b610c45806200042f6000396000f3fe608060405234801561001057600080fd5b50600436106100415760003560e01c80634c8d415514610046578063c41a360a14610076578063d087d288146100a6575b600080fd5b610060600480360381019061005b9190610705565b6100c4565b60405161006d91906107ab565b60405180910390f35b610090600480360381019061008b91906107fc565b61017d565b60405161009d9190610838565b60405180910390f35b6100ae6101fe565b6040516100bb9190610862565b60405180910390f35b60006100d1848484610208565b60006109c45a6100e191906108ac565b905060008085516020870160008986f191508115610139577f7d8117ea7d82bb11a00693646d225ca091164246a462670e5c1ecf5616a2096f8560055460405161012c9291906108e0565b60405180910390a1610175565b7fabb9bcd6b477e4bb3ed6c88af69cc88d3d7e4618e83f62517420a9169bc4f6118560055460405161016c9291906108e0565b60405180910390a15b509392505050565b600060045482106101c3576040517f08c379a00000000000000000000000000000000000000000000000000000000081526004016101ba90610966565b60405180910390fd5b6001600083815260200190815260200160002060009054906101000a900473ffffffffffffffffffffffffffffffffffffffff169050919050565b6000600554905090565b600080600080600090505b6004548110156102b5576000600260006001600085815260200190815260200160002060009054906101000a900473ffffffffffffffffffffffffffffffffffffffff1673ffffffffffffffffffffffffffffffffffffffff1673ffffffffffffffffffffffffffffffffffffffff16815260200190815260200160002060006101000a81548160ff0219169083151502179055508080600101915050610213565b600090505b6003548110156104fd576102ce858261051e565b8094508195508296505050506000600188886005546040516020016102f593929190610a05565b6040516020818303038152906040528051906020012060405160200161031b9190610ac5565b60405160208183030381529060405280519060200120868686604051600081526020016040526040516103519493929190610b16565b6020604051602081039080840390855afa158015610373573d6000803e3d6000fd5b5050506020604051035190506000808273ffffffffffffffffffffffffffffffffffffffff1673ffffffffffffffffffffffffffffffffffffffff16815260200190815260200160002060009054906101000a900460ff1661040a576040517f08c379a000000000000000000000000000000000000000000000000000000000815260040161040190610ba7565b60405180910390fd5b600260008273ffffffffffffffffffffffffffffffffffffffff1673ffffffffffffffffffffffffffffffffffffffff16815260200190815260200160002060009054906101000a900460ff1615610497576040517f08c379a000000000000000000000000000000000000000000000000000000000815260040161048e90610ba7565b60405180910390fd5b6001600260008373ffffffffffffffffffffffffffffffffffffffff1673ffffffffffffffffffffffffffffffffffffffff16815260200190815260200160002060006101000a81548160ff0219169083151502179055505080806001019150506102ba565b6005600081548092919061051090610bc7565b919050555050505050505050565b60008060008360410260208101860151925060408101860151915060ff60418201870151169350509250925092565b6000604051905090565b600080fd5b600080fd5b600073ffffffffffffffffffffffffffffffffffffffff82169050919050565b600061058c82610561565b9050919050565b61059c81610581565b81146105a757600080fd5b50565b6000813590506105b981610593565b92915050565b600080fd5b600080fd5b6000601f19601f8301169050919050565b7f4e487b7100000000000000000000000000000000000000000000000000000000600052604160045260246000fd5b610612826105c9565b810181811067ffffffffffffffff82111715610631576106306105da565b5b80604052505050565b600061064461054d565b90506106508282610609565b919050565b600067ffffffffffffffff8211156106705761066f6105da565b5b610679826105c9565b9050602081019050919050565b82818337600083830152505050565b60006106a86106a384610655565b61063a565b9050828152602081018484840111156106c4576106c36105c4565b5b6106cf848285610686565b509392505050565b600082601f8301126106ec576106eb6105bf565b5b81356106fc848260208601610695565b91505092915050565b60008060006060848603121561071e5761071d610557565b5b600061072c868287016105aa565b935050602084013567ffffffffffffffff81111561074d5761074c61055c565b5b610759868287016106d7565b925050604084013567ffffffffffffffff81111561077a5761077961055c565b5b610786868287016106d7565b9150509250925092565b60008115159050919050565b6107a581610790565b82525050565b60006020820190506107c0600083018461079c565b92915050565b6000819050919050565b6107d9816107c6565b81146107e457600080fd5b50565b6000813590506107f6816107d0565b92915050565b60006020828403121561081257610811610557565b5b6000610820848285016107e7565b91505092915050565b61083281610581565b82525050565b600060208201905061084d6000830184610829565b92915050565b61085c816107c6565b82525050565b60006020820190506108776000830184610853565b92915050565b7f4e487b7100000000000000000000000000000000000000000000000000000000600052601160045260246000fd5b60006108b7826107c6565b91506108c2836107c6565b92508282039050818111156108da576108d961087d565b5b92915050565b60006040820190506108f56000830185610829565b6109026020830184610853565b9392505050565b600082825260208201905092915050565b7f496e76616c696420494400000000000000000000000000000000000000000000600082015250565b6000610950600a83610909565b915061095b8261091a565b602082019050919050565b6000602082019050818103600083015261097f81610943565b9050919050565b600081519050919050565b600082825260208201905092915050565b60005b838110156109c05780820151818401526020810190506109a5565b60008484015250505050565b60006109d782610986565b6109e18185610991565b93506109f18185602086016109a2565b6109fa816105c9565b840191505092915050565b6000606082019050610a1a6000830186610829565b8181036020830152610a2c81856109cc565b9050610a3b6040830184610853565b949350505050565b600081905092915050565b7f19457468657265756d205369676e6564204d6573736167653a0a333200000000600082015250565b6000610a84601c83610a43565b9150610a8f82610a4e565b601c82019050919050565b6000819050919050565b6000819050919050565b610abf610aba82610a9a565b610aa4565b82525050565b6000610ad082610a77565b9150610adc8284610aae565b60208201915081905092915050565b610af481610a9a565b82525050565b600060ff82169050919050565b610b1081610afa565b82525050565b6000608082019050610b2b6000830187610aeb565b610b386020830186610b07565b610b456040830185610aeb565b610b526060830184610aeb565b95945050505050565b7f496e76616c6964207369676e6174757265730000000000000000000000000000600082015250565b6000610b91601283610909565b9150610b9c82610b5b565b602082019050919050565b60006020820190508181036000830152610bc081610b84565b9050919050565b6000610bd2826107c6565b91507fffffffffffffffffffffffffffffffffffffffffffffffffffffffffffffffff8203610c0457610c0361087d565b5b60018201905091905056fea26469706673582212206722c08f125554bf73e02bda24054497fad305bc66f48d46aff235e52b77431c64736f6c63430008180033",
  "linkReferences": {},
  "deployedLinkReferences": {}
}